:020000040001F9
:10D00000D0380020D5DC0100EFDC0100F1DC0100AC
:10D010000000000000000000000000000000000010
:10D02000000000000000000000000000F3DC010030
:10D030000000000000000000F5DC0100F7DC01004A
:10D04000F9DC0100F9DC01009B030200F9DC0100BE
:10D05000F9DC0100000000001FF90100F9DC01000B
:10D06000F9DC0100F9DC0100F9DC0100F9DC010068
:10D07000F9DC0100F9DC0100F9DC0100F9DC010058
:10D08000F9DC0100670A0200F9DC0100F9DC0100AB
:10D090007D0A0200F9DC010093100200F9DC0100B6
:10D0A000F9DC0100F9DC01000000000000000000D4
:10D0B0000000000000000000000000000000000070
:10D0C0000348854604F042F80048004745D5010072
:10D0D000D0380020401E00BF00BF00BF00BF00BF0F
:10D0E00000BF00BF00BF00BF00BF00BF00BFF1D145
:10D0F0007047000010B50A460146FA4803F08EFA60
:10D1000010BD10B50178022901D0012904D10022F7
:10D110004068114603F082FA10BD30B595B004A8FE
:10D1200003F07AF8002803D00022114603F076FAC3
:10D130000498ED4D002803D00120E87015B030BDF3
:10D140000821684601710024047305A800900DA809
:10D150000290E5486946401D01F0BFFB002803D05E
:10D160000022114603F05AFA68460179DF48A022EE
:10D170005023002903D16946097B002905D069782D
:10D18000012902D1A97800290AD00178FD25490892
:10D1900049002940017002814381446084810BE091
:10D1A000017802244908490021430170028143812A
:10D1B000694641601E218181CC4886DF002803D06A
:10D1C0000022114603F02AFA012000F045FC002855
:10D1D000B4D00022114603F021FAAFE770B506463D
:10D1E00008780D4615285FD009DCBF4C11280DD0FA
:10D1F000122831D0132846D0142855D148E02128D0
:10D200004BD0222849D023284ED146E0072000F0F9
:10D2100023FC002803D00022114603F0FFF96868C0
:10D2200004220588B048E5803146083003F05CFFF1
:10D23000AE4829467C3800F081FF002803D0002248
:10D24000114603F0EBF92078401C0006000E207018
:10D250002AD1FFF762FF27E0A44862217C3803F05F
:10D260005CFF002000F0F8FB002803D000221146EC
:10D2700003F0D4F92078012801D1FFF74EFF207880
:10D28000401E207010E09848083001F096FA05E042
:10D290009648183802F0FCF800E01046002803D049
:10D2A0000022114603F0BAF9002070BD70B50023CA
:10D2B0008D880C680DE0E6187678E15C864206D130
:10D2C000E018801C491E10609180002070BD5B1822
:10D2D0005B1C9D42EFD8052070BD7FB5041D008802
:10D2E00019284CD01B280BD01D2808D12088A11C40
:10D2F00075DF002803D00022114603F08FF97FBDAF
:10D3000020460B300290A07A6946C00888816A46A0
:10D3100002A90220FFF7CAFF002806D06A4602A928
:10D320000320FFF7C3FF0028E9D169468988002060
:10D330006F4D4B0820E04200009E511C715CB25CB6
:10D3400009020A43AA4216D187DF002000F084FBBD
:10D35000002803D00022114603F060F96348FD2243
:10D360000178114001700146624AA01C88DF5E49C5
:10D37000002088707FBD401C8342DCD87FBDA07830
:10D380000228FBD1FFF7C9FE7FBD10B5044601F0AE
:10D3900002FD564821467C3800F000FF53482146E4
:10D3A000183802F04BF8514821460C3801F074FF50
:10D3B000204600F02BFC2046FFF78FFF10BD10B574
:10D3C000044602F0BFFC022C01D0032C07D14648D2
:10D3D000C178002903D00021C170FFF79EFE10BD67
:10D3E00070B5414C04281BD0072821D00A2816D13B
:10D3F000002000F031FB002803D00022114603F08A
:10D400000DF900F0F9FB002803D00022114603F0CB
:10D4100005F93CDF09E00022114603F0FFF870BD7A
:10D420001321E08876DF0828F9D00028F3D170BDF9
:10D430006078012501280CD1A078002809D1A570B9
:10D4400087DF002807D0082803D00022114603F008
:10D45000E5F8A57070BDFFF760FEFAE710B5044669
:10D460000878012806D0022803D1498822A003F0B9
:10D470007FFE10BD1C48083001F09FF9002803D042
:10D480000022114603F0CAF8204602F001F80028F5
:10D4900003D00022114603F0C1F81CA003F068FE7F
:10D4A00010BD10B504460878002808D0012801D026
:10D4B000022803D149781EA003F05AFE10BD204671
:10D4C00001F03AFF002803D00022114603F0A6F82D
:10D4D000204601F00FFF0028F0D00022114603F093
:10D4E0009DF810BDEFBEADDE002800209C2C002072
:10D4F0000D18000094130200486561727420526197
:10D500007465203D2025640D0A00000048656172A5
:10D510007420726174652073657276696365206436
:10D520006973636F7665726564200D0A0000000000
:10D5300042617474657279203D2025642025250D93
:10D540000A00000000248AB0734B03220521204604
:10D55000009403F0BAFA002803D00022114603F029
:10D560005DF86E4A6E49032000F0ABFA002803D044
:10D570000022114603F052F86946002000F07FFBBC
:10D58000002803D00022114603F048F868460078CE
:10D59000022853D000216846624A017107CA06ABCF
:10D5A00007C36846848460480290012003905F4866
:10D5B0000490FF200130059009A8009003235C4AE5
:10D5C00002A906A802F022FF002803D0002211467B
:10D5D00003F024F857A003F0CBFD00F031F86846C3
:10D5E000007900F05CF800F077FD002803D00022FD
:10D5F000114603F013F8574800906946564801F069
:10D6000003FF002803D00022114603F007F8534817
:10D610000090514869460C3001F023FE002803D0E9
:10D620000022114602F0FAFFFFF777FD48DF0028DD
:10D63000FCD00022114602F0F1FFF7E70121AAE732
:10D6400008B53A49002348224839082003F0F4FC81
:10D65000002803D00022114602F0E0FF00206946B6
:10D660000090487002200870684660DF002803D0F0
:10D670000022114602F0D2FF394803F0FAFC0028DC
:10D6800003D00022114602F0C9FF364803F0F9FC2E
:10D69000002803D00022114602F0C0FF08BD1FB5CC
:10D6A0006946087302F0DEFB002803D00022114611
:10D6B00002F0B4FF03A800F0F5FF002803D0002219
:10D6C000114602F0ABFF01A80521013003F025FD52
:10D6D00025480222694600900A71487901231843BF
:10D6E0001043E3210840DF210C30084069464871AF
:10D6F000072088711020C871087A184310430872F7
:10D700000948401C01F031F8002803D000221146DE
:10D7100002F084FF1FBD0000202A0020E1D3010099
:10D72000CD0C00009C1302000428002020290020BA
:10D7300003D10100486561727420726174652063D1
:10D740006F6C6C6563746F72206578616D706C6569
:10D750000D0A00005DD40100842C0020A3D4010038
:10D760008BD30100BFD30100DDD10100F0B500244F
:10D77000F84904600969F84FCB432246012196001D
:10D78000BE5D0D46B5401D4204D00E46056896406C
:10D7900035430560521C042AF1D32046F0BD04280D
:10D7A0000CD2EC4A1269EC4B80001B5C01209840C3
:10D7B000904300D001200870002070470020FAE755
:10D7C000F8B507460024E44802E0641C042C19D292
:10D7D000A2008258BA42F8D1042C13D2DF4EE04D99
:10D7E000F069002928D001290DD002290AD1600052
:10D7F000201840194578002D04D0F168002901D087
:10D8000028468847F8BD610062182946AD5C51186A
:10D8100000914978002909D071680A225143CF4A02
:10D82000521C03F003FA002800D177700098817829
:10D83000CA4810300155DEE703F035FAC7486100E9
:10D84000611810304919005D8D78A842D3D0F8BD19
:10D8500000780221B4E7FEB5C04906464F684B691F
:10D860000093BB00FB1800200122019352050546DE
:10D87000B84C330003F08CFC180D13133749596C66
:10D88000828E858E97A1A5A5A5A5A5C3C8CDD4DAFE
:10D89000DA120B225205A260E5600D70FEBD052074
:10D8A0008005A060E56060680F235B05584080023A
:10D8B00009D5A260E560022E02D1E120C0000AE095
:10D8C0007D20400107E0E260A560022E01D1C82062
:10D8D00001E0FF2091300E70642103F0EFFB7843EC
:10D8E0000022014646E005208005A060E5606068F2
:10D8F0000F235B055840800204D5A260E560192023
:10D900004001E8E7E260A560E1E705208005A0604E
:10D91000E56060680F235B055840800202D5A26075
:10D92000E560CDE7E260A560D3E705208005A06053
:10D93000E56060680F235B055840800202D5A26055
:10D94000E56001E0E260A5600E707900002211E060
:10D9500005208005A060E56060680F235B055840E6
:10D96000800202D5A260E56001E0E260A5600E7071
:10D9700000223946009803F059F9FEBD05239B05A6
:10D9800044E06068012189050A468243A26008409C
:10D99000E06010E061680120800502468A43A260D1
:10D9A0000140E160E4E761680120800502468A43A6
:10D9B000A2600140E1600199C8E70F214905E160DB
:10D9C0001BE00F46886903F06EF911218A1B654E32
:10D9D00001D0002802D0A660E560FEBD012A0BD967
:10D9E0001046C8214843642103F068FB796800228F
:10D9F0004143B86903F01AF9E660A560FEBD0F2245
:10DA00005205A260E56015E007239B05A360E56071
:10DA10000EE00D225205A260E5600122920507E0AA
:10DA20000322D205A260E560921001E00F225205A8
:10DA3000E260A5600E70FEBD4848017AC90701D0BA
:10DA4000007808E770474348426846490B469343CD
:10DA500083600A40C2607047404A0146127A002043
:10DA6000D20701D00846F6E6704770B50D46FFF7BD
:10DA7000F3FF044629463CA003F07AFB204670BD24
:10DA800070B50023042811D244000419344D012A32
:10DA900002D101290DD0002246008019304E801994
:10DAA00000290CD0012906D0022906D007231846E8
:10DAB00070BD0D30C2B22A55F9E74270F7E78270A7
:10DAC000F5E770B50E46254905464E608D6000208D
:10DAD000CA60A9071FD50024012211462046FFF77E
:10DAE000CFFF641C042C02D20028F5D013E00028DC
:10DAF00011D1194872080421103002F0FBFD0028F2
:10DB000009D102F02AFE002805D11448174A002145
:10DB10001C3003F02DF8E90706D00F220D495205FD
:10DB20008A600023CB608A6100280DD10B48104A1F
:10DB30000021143003F01CF8002805D107480D4AD5
:10DB40000121183003F014F870BD10B502F005FE85
:10DB500010BD000000050050A81302000C28002092
:10DB6000AC2C0020000080002573000051D801007B
:10DB700039DA010047DA010010B502F0FEFDE7E7EF
:10DB8000F0B500210B4C0C4D03273F048A00A2582E
:10DB900092005619326801238B40034000D00323C2
:10DBA000BA431B0413433360491C0429EED30020FD
:10DBB000F0BD0000A81302000007005010B50122BC
:10DBC00002210020FFF75CFF002801D0072812D1B6
:10DBD000072202210120FFF753FF002801D0072868
:10DBE00009D100210A220846FFF74AFF002801D088
:10DBF000072800D1002010BD10B50320FFF7C0FF9B
:10DC0000002801D0062800D1002010BD10B5304CEE
:10DC10000188606810290DD011290AD1401E60606A
:10DC200007D1FFF7CBFF002803D02168002900D0DF
:10DC3000884710BD00281ED1002101220846FFF7A9
:10DC40001FFF002801D0072811D10722022101203F
:10DC5000FFF716FF002801D0072808D1042202216F
:10DC60000020FFF70DFF002805D0072803D021680A
:10DC7000002900D088476068401C606010BD7CB5FA
:10DC8000134E00250C463060002918D0694600204C
:10DC9000FFF785FD002819D101A90120FFF77FFDBD
:10DCA000002813D1684601790020002901D0022004
:10DCB00004E069460978002900D00B2020707068C4
:10DCC000002802D1FFF77AFF054628467CBD0000F8
:10DCD0002C2800200321094802680A4302600848F2
:10DCE00002680A4302600748804707480047FEE78A
:10DCF000FEE7FEE7FEE7FEE7FEE700002405004042
:10DD00005405004015DD0100C1D00100234922481F
:10DD10000860704710B500F01DF8002805D02149B3
:10DD20001F484860C813204988612048018CC9B247
:10DD300001290ED1818C09070BD1018D0906090F2C
:10DD4000042906D1808D0006000F02D11849012058
:10DD5000886010BD1548018CC9B2012917D1818C8A
:10DD6000090714D1018D09060A0F03D1828D12060D
:10DD7000120F0ED0090F012903D1828D1206120F46
:10DD800007D0032903D1808D0006000F01D00020A9
:10DD900070470120704700000024F4003428002060
:10DDA000DFFF07C000050040006C0040C00F00F01E
:10DDB0000006004070B5F84B0021F64A9B680EE063
:10DDC000CC00A518AD788678B54207D1145B0588DC
:10DDD000AC4203D1C8008018406870BD491C99420C
:10DDE000EED3002070BD70B5EA4E0024EA4D103627
:10DDF00005E0382060438019416B8847641CA8689F
:10DE00008442F6D30020686070BDF8B504466030E7
:10DE10000D4600782E2148430019FFF7CBFF010083
:10DE200017D0DD484268022A13D24034A68B38232B
:10DE30005343D84C1F4610341B195E800126E6550B
:10DE40005D60521C596342608068824201D1FFF7D5
:10DE5000CAFFF8BDF3B50446603000782E21484370
:10DE6000071981B03846FFF7A5FF060024D0CA4D38
:10DE70006868022820D24034A18BC64C3822504317
:10DE80001034031959800299002907D00021215428
:10DE90002E223946181D03F027F901E002212154F2
:10DEA0006868382141430919401C4E636860A968BD
:10DEB000884201D1FFF797FFFEBDF0B4B649044692
:10DEC000C8682546401CC8608968002660358842BD
:10DED0001AD220464030C67729782E22491CC9B272
:10DEE0004A432970AB4B1219C900C9180B8813801B
:10DEF000498851801671808B012190DF010004D088
:10DF00006E702046F0BC80E76E70F0BC704730B594
:10DF10000989002A05D0D088491C814212D10020ED
:10DF200030BD0246603214782E256C432418A48D2F
:10DF3000A142F4D0491C198011782E2251430818AF
:10DF4000808D02E01980D088401E5880012030BDAD
:10DF500008B56021095C2E22514309184030C27F68
:10DF6000002A08D0521ED2B20C235A435218D2892A
:10DF70006B46521C01E04A8D6B461A80898D598090
:10DF8000808B194692DF08BDF3B5054660300078F6
:10DF90002E2148432E4647194036F47F0C2060431B
:10DFA000C1193A79601C891D83B0904226D101AB1A
:10DFB00000222846FFF7ABFF002822D010E0401EC9
:10DFC000A04201D1002003E00C206043C0191230B0
:10DFD0000246009001AB2846FFF799FF002807D0C2
:10DFE000049800210170B08B01A993DF05B0F0BD4A
:10DFF000F07F0099401C641CF077E4B23879A042AD
:10E00000DDD80498012101700020EFE7F0B5074644
:10E010000446603738782E225043061920464A8835
:10E02000403089B00090002A3BD108310591357904
:10E0300008782818032800D90320307100200790A1
:10E0400014E007980A21484305990A2241180C2038
:10E05000684380190890801D891C03F045F80898D2
:10E06000002101820798401C6D1C07903079A8425E
:10E07000E7D80C204543A819418838782E22504310
:10E080000019808D81420CD23079032809D0009983
:10E09000C8772046FFF75CFF01000FD000207870A2
:10E0A00009E000980025C57701A92046FFF76CFF1D
:10E0B000010005D07D702046FFF7A7FE09B0F0BD36
:10E0C000684600790028F9D001212046FFF7C2FEFA
:10E0D0002046FFF7F2FEF1E700212F480122816080
:10E0E0000270C1604160084670472B480021816082
:10E0F0000170C16041600846704730B5002815D0F6
:10E10000002913D0244A1378002B11D09368022BD6
:10E1100010D011D21F4CDD002C19058825804088B5
:10E1200060805B1C61600020936030BD0E2030BDBC
:10E13000082030BD062030BD042030BD10B50028B9
:10E140000DD0154A1378002B0BD09368002B08D004
:10E15000044660346378002B05D0112010BD0E20DA
:10E1600010BD082010BD0023D36053602370034608
:10E1700002464033074899830188118040885080C7
:10E18000988B012190DF0028ECD1012060700020E5
:10E1900010BD0000B82C00203828002070B50028E1
:10E1A00015D0002913D04B4A1278002A0FD00A88C4
:10E1B000302A17D00CDC04464034102A10D0112A23
:10E1C00005D1622102F0A9FF0020C043A08370BDE9
:10E1D000322A2DD0332AFAD1091D00F02DF870BD56
:10E1E0008888F3E70546C888091D002807D0002164
:10E1F0002846FFF72FFE2846FFF75FFE70BD2C462E
:10E20000603420782E22504340194A8902808A893E
:10E210004280CA894285098A81852846FFF798FE8F
:10E220000100EBD0002060702846FFF7EEFD70BDC6
:10E23000091DFFF7EBFE70BDFEB50446603001908E
:10E240000D4600782E214843224603194032D07FE4
:10E250000C267043C018801D844629466888083102
:10E26000002812D11C4E0D880DE0062747437F1869
:10E27000BF88B74206D106256843401841886046EA
:10E28000418102E0401C8542EFD8002568460570B8
:10E29000D07F1979401C884203D10120694608705B
:10E2A00010E0D07769462046FFF76EFE010005D0EA
:10E2B000019845702046FFF7A8FDFEBD684600782E
:10E2C0000028FAD001212046FFF7C4FD2046FFF7C1
:10E2D000F4FDFEBD38280020022900000C2148432F
:10E2E000FF4910B5012240188272911E0181FF2161
:10E2F000C172072102F011FF10BD70B50546F84943
:10E3000018206843D439441820461130062102F001
:10E3100004FF002020606060A060E060FF212174A5
:10E32000E175284600F0ECFE70BD70B5EC4B04467C
:10E330009E7A082000250E4207D0EA48844202D087
:10E340001889A04202D10020156070BD052070BD63
:10E3500000207047FEB50E46044681786A46E248C2
:10E3600001F029FE002827D160780C21DC4F4843BA
:10E37000C019807A400620D4022E1ED0012E1ED055
:10E38000DA4DA07818214843D5490023D4394118E3
:10E3900018226846A847002813D0022E0CD02078F7
:10E3A0000C214843CE490C314018807AD049800076
:10E3B0000A58214668469047FEBDCE4DE1E7CE4D56
:10E3C000DFE7022EF8D060780C214843C019817A2B
:10E3D000BF221140817260781C214843C049182334
:10E3E0002C3941181C226846A847D8E7F0B585B0FB
:10E3F0000D4607460A206946888168780C21484303
:10E40000B74E03AA8019008903236946AADF0028B2
:10E4100031D1687834460001103C001969468A8978
:10E42000001D02F085FE0028687805D00001215803
:10E4300000290FD0AF4E0EE00C2141438919897A93
:10E44000890718D400010019002101604160816032
:10E45000C16010E0A84E69468A89225068780001A0
:10E460000019001D02F040FE6878342300010119F4
:10E4700010223846B047002005B0F0BD70B50D46FB
:10E4800001466878964C0001103C00193423102294
:10E4900001F03CFE002805D1697809016258521C40
:10E4A00000D1625070BDF8B540788D4B0501103B2E
:10E4B0008B4E0C2700215C59784380190A46002CAA
:10E4C00007D0867AF70904D0760602D4E918A2B2FA
:10E4D000091D00890323A9DF002800D08748F8BD63
:10E4E00070B5044600787E4E0C2148430C368119E5
:10E4F00060780C225043B51A40190089091D7EDF4F
:10E50000010016D120780C2250438019427A012351
:10E510001A43427260780C2250434219907A0423C5
:10E520001843907262780C235A435219DF23184023
:10E530009072084670BD002806D0FF21017041701E
:10E540008170C170002070476C4833387047FFB548
:10E5500063488FB00C300068189F1E46002852D0C8
:10E56000482F50D86846FFF7E6FF002803D0002266
:10E57000114602F053F800246846047004712546E1
:10E5800005970696A9B20DAA574801F014FD002878
:10E5900006D108220DA90F9802F0CAFD00281AD052
:10E5A0006D1C072DEED3684680780790FF282AD08F
:10E5B00010982025042811D049481821D438301A41
:10E5C00002F07CFD012707282DD204A802901198A3
:10E5D00000281AD021E068468570E4E7482F03D070
:10E5E00040206946087101E068460571694608796E
:10E5F000032108436946087104A8029001A96846EE
:10E60000119A00F0BEFD13B0F0BD0799384688405E
:10E610003549083949680842F5D0079800F070FD7F
:10E620006846057135E02E481C212C38301A02F05E
:10E6300045FD002808D02A481038311A09091BD096
:10E64000402069460871DEE704A80290684605711B
:10E65000447023480A9418300B9044380790684659
:10E660008078182148431E49D4394018089007A8DB
:10E670000690182005900CE0302269460A714C7013
:10E68000CF701749897A890703D404604460846095
:10E69000C460109869460328087901D00221A8E7D0
:10E6A0003843A8E7F0B585B0050043D00C480024F6
:10E6B0000C300460447284722046FFF70FFE084855
:10E6C000543844648464C464002604653046FFF70B
:10E6D00014FE761C072EF9D34821684681800FE08E
:10E6E0000C2E0020FFFF00005028002051E3010005
:10E6F000D8130200870002000100020041800000E0
:10E700000721C180FD480090FD49684601F0E3FB08
:10E7100000280ED1FA4E0120083E307028780028DB
:10E720000AD069468888C988484381B2F44801F014
:10E730003AFDA1E6F3489FE6F34F0025A9B202AAED
:10E74000EF4801F038FC002809D118206843C019AF
:10E750000023182202A901F0D9FC002801D034704E
:10E760008AE66D1C072DE9D386E670B50646E448B7
:10E770000D460838007800280FD0E249002E0FD04F
:10E78000002D0DD0286800280AD0DF4CE034216825
:10E79000002907D0DB480A3870BDDA48801F70BDF9
:10E7A000084670BD20600522691D201D02F09CFCFA
:10E7B0002879A0720020307070BDF8B50446D048AA
:10E7C00008380178CF48801F00290ED0002C0BD0CC
:10E7D0002178002909D1CC4EE0363168002904D0D7
:10E7E000617800290FD101E0C648F8BDC64DD43587
:10E7F000A97A012907D08907F7D5A1782846C07AD8
:10E80000FF2905D102E0BF48801CF8BDFF2807D0D2
:10E81000BD4AA070A83211461231288981DFF8BDA7
:10E820002946684600F073FC0028F8D162780C2372
:10E8300069465A4309785219D172A1702178594317
:10E840008919497AC90710D061780C2251434919B6
:10E850008A7A20231A438A7221780C22514389191B
:10E860004A7A02231A434A72F8BD2046FFF738FE5F
:10E87000F8BDA34A10B5083AA24B12789B1F002A94
:10E8800014D09A1D002805D0002903D00278002A50
:10E890000CD101E0104610BD9B4C0022E0342468EE
:10E8A000002C03D0407800280CD101E0184610BDA0
:10E8B0009548D430807A012804D02423184204D00B
:10E8C000012005E08F48801C10BD000602D5022003
:10E8D000087000E00A70002010BDF0B5884A083AC0
:10E8E0001378884A921F002B2CD0931D00280BD040
:10E8F000002909D00C68002C06D08C68002C03D0AD
:10E90000007800281ED101E01846F0BD7E48E030B6
:10E910000068002816D000237B4C1A461846D434D1
:10E92000E57A854202D1A57AAD0721D40D7B9542C7
:10E930000ED9182506466E43734D7519EE7DF60700
:10E9400002D005E01046F0BD97008E68521CF551CC
:10E950000D799D420CD9182506466E436A4D7519EE
:10E96000EE7DB60704D49F0010350E685B1CF55190
:10E97000401C0728D4D30B710A730020F0BD6148F6
:10E98000823070475E4910B508390A785D49891FA1
:10E99000002A19D0002803D00278002A14D101E0FF
:10E9A000584810BD584AE0321268002A0CD08078CE
:10E9B00007280BD21821544A41438918C97DFF29E1
:10E9C00004D000F0C9FB10BD084610BD4D48801CA6
:10E9D00010BD70B54A4908390A784A49891F002A8A
:10E9E0001CD0002803D00078002817D101E045484A
:10E9F00070BD4548E030006800280FD00020424D2F
:10EA00000446182161434919C97DFF2902D02046D7
:10EA100000F0A2FB641C072CF3D370BD084670BD48
:10EA20007CB5044636480D46083801783548801FC5
:10EA300000292DD0811D002C29D0002D27D0217830
:10EA4000002925D13049E0310968002920D02D491D
:10EA50006078891C00281AD12B48D430807A01288C
:10EA600015D0A078072812D218225043264A8018C1
:10EA7000C07DFF280BD0E96800290ED0AA68002AC3
:10EA80000BD00A2A09D22878012802D005E00846CE
:10EA90007CBD1D48C83002F027FBA1786A461848A3
:10EAA00001F089FA2878194980000A5821466846F9
:10EAB00090477CBD7CB5054611480C460838017866
:10EAC0001048801F00292AD0811D002D28D0002C3D
:10EAD00026D02978002922D10B49E0310968002984
:10EAE0001DD0A87807281DD2182148430649401890
:10EAF000C07DFF2816D068780C2109E04FE50100A1
:10EB0000502800200E800000382D0020D81302006D
:10EB1000FD4A41438918897A890706D4FB487CBDA0
:10EB200008467CBDF94881387CBDE16800290FD1D9
:10EB3000A1680A290CD22178012909D10101F248E2
:10EB400010380918091DE160697809014058A06072
:10EB5000A9786A46EE4801F02EFA2078ED49800047
:10EB60000A582946684690477CBDE94908390A7821
:10EB7000E6498939002A1BD0002803D00278002AF0
:10EB800016D102E0E14883387047DF4A0C32126840
:10EB9000002A0DD0807807280CD218214843DA4982
:10EBA000D4394018C07DFF2804D0D848401E704793
:10EBB00008467047D54881387047D4487047D348D5
:10EBC0007047D2487047D24A083A1378CF4A893AF8
:10EBD000002B12D0931D002905D0002803D0007807
:10EBE00000280AD101E018467047C74B0C331B6858
:10EBF000002B02D00870002070471046704770B597
:10EC0000C34D0446083DC1482A788938002A1CD0E3
:10EC1000821D002C18D0002916D02278002A14D189
:10EC2000B94A0C321268002A0FD0A07807280DD2FA
:10EC300018225043B44AD43A8018C27DFF2A05D026
:10EC40006278FF2A05D017E0104670BDAF488138C2
:10EC500070BD0A78022A0FD00722103002F044FA61
:10EC6000A178012088406968084368600221204635
:10EC7000FFF770FB002070BDA4488A3870BD0B46BA
:10EC8000A34910B50839A14A0978893A002922D048
:10EC9000911D002805D0002B03D0017800291AD13E
:10ECA00001E0084610BD98490C310968002912D0CE
:10ECB000964A81788C3AFF290FD018204143924818
:10ECC000D4380918C87D800705D4072218461031AA
:10ECD00002F00AFA0022104610BD4078FF28FAD050
:10ECE0000C21484388494118887A8007F3D50722C8
:10ECF0001846EDE7F0B5064685480C460838017819
:10ED0000824889B0893800293ED0811D002E3DD02F
:10ED1000002C3BD03178002936D17B4900250C31BD
:10ED20000968002930D0B078072831D2764F1821F1
:10ED30004843D43FC019C07DFF2829D03846E5603C
:10ED4000EC3065612061B078A5604843C01960600F
:10ED5000B17807AA6E4801F02EF9002814D11823C3
:10ED60001C2207A9684601F0D1F900280CD13946C8
:10ED7000E560EC3165612161B17818225143C91910
:10ED8000A56061606946216009B0F0BD0846FBE7F7
:10ED90005E488138F8E7F0B506465D480027083838
:10EDA000007893B000285BD0574D0C3528680028B8
:10EDB00056D06846FFF7BFFB002803D0002211465B
:10EDC00001F02CFC00200E90301D02902A20694694
:10EDD0008881FF208870002008700B9030884A4C92
:10EDE00010280ED0B0880BAA0221FFF79EFA002847
:10EDF00007D10B980C2141430919CA7A69468A70D8
:10EE00004870308817287DD02CDC102838D0112885
:10EE100079D0132824D100200B993B4B1C224A4364
:10EE20002C3B0A90D21805920C225143089009906D
:10EE30000919C97A182251431A46A83A8918069125
:10EE400007900022B08805AB11467FDF002807D16C
:10EE50000B980C2148430019817A042211438172D6
:10EE600013B0F0BD2B4B1033182876D01C2875D06A
:10EE70005228F5D1A87A8100595868468847EFE7AB
:10EE80000BAA01212448FFF750FA0028E8D10B997A
:10EE90000C20484302220019827211236A46137122
:10EEA0005170B18801810722B11D02F01DF9B61D14
:10EEB0000D960026144918207043D43940180722B3
:10EEC00010300D9902F034F9002803D0761C072E7B
:10EED000F0D3CDE00B980C2148430019C672817A1B
:10EEE00008221143817268468670B1B20CAA0848A4
:10EEF00001F061F80028ECD10B981C21484302492D
:10EF00002C390BE045E017E00C2E0020918000002A
:10EF100050280020E8130200FFFF000040181823CB
:10EF20001C220CA901F0F2F8A87AA44980000A5822
:10EF300069460CA890479BE00B980C2148430119A7
:10EF4000887AFD2210408872010708D5C0090FD0C9
:10EF500000216846FFF7FEF90AE062E0A4E0684697
:10EF60008078FF2804D0FFF7C8F9FF206946887031
:10EF70000B980C2148430019817A490703D5697A17
:10EF80000127B94369721021817212206946087104
:10EF90006EE0687A0C214008400068720B986B465E
:10EFA0004843011984468A7AFB2002408A72142061
:10EFB0001871B0790127002801D00E9058E0F0793F
:10EFC000400755D59878FF2852D008231A438A72F3
:10EFD000B27A920708D5182302465A43784BD218C2
:10EFE000D37D5B085B00D375CA7AFF2A40D06246A6
:10EFF000A25C022A10D018225043714E07228019B9
:10F00000103002F071F86846807818214843801962
:10F01000C17DFD221140C17501216846FFF79AF9B3
:10F0200026E0B079010901292CD10007000F012841
:10F0300028D10B980C2141430919897A090721D558
:10F040005F490001C43140180A21001D02F065F833
:10F050001620694608710B980C2148430119887ADB
:10F06000602210438872687A01270221084368727F
:10F0700001A968460E9A00F084F8684600791228C3
:10F0800014D01CE00B980C2148430019817A80228F
:10F0900011438172152069460871A87A8100595878
:10F0A00068468847002088E713206FE70B980C21FB
:10F0B00041430919897A012901D0FFF70FF9002F7F
:10F0C00000D1CDE6687A8007FBD506AA20213D480D
:10F0D000FFF72BF9002804D0687AFD2108406872F8
:10F0E000BEE6002069460875069848750C2148431D
:10F0F0000019C07A6946887505A8FFF7F1F9AFE6EF
:10F1000001218140304842688A434260704770B5AF
:10F1100005462E4A2A480024182363431B18DB7D2A
:10F12000FF2B04D0641C072CF6D3104670BD0A7860
:10F13000022A09D0182262431018FD22C275072244
:10F14000103001F0D1FF04E0182161430818FE21BE
:10F15000C1752C700022E8E77CB5054681B21A48DB
:10F160006A46083000F027FF040008D148216846AD
:10F1700001F019F8040002D12846FFF7BEF8204636
:10F180007CBD0F4BE0331B68184700207047002000
:10F19000704710B5FFF72AF910BD00207047002016
:10F1A000704710B5FFF76AF910BD002070470020C6
:10F1B000704710B5FFF777F910BD0000E8130200A3
:10F1C000382D0020FFFF0000482800204380000069
:10F1D00010B5644C21686068884210D01421624ADE
:10F1E000484381188B78002B0AD0105A083197DFDA
:10F1F000002804D12079401C4007400F606010BDFA
:10F20000105A8988002295DFF2E738B50178002985
:10F2100026D18188554A914222D1817901291FD175
:10F22000504943888A6800211380514C037A0FE0CB
:10F230000C254D432D186D89A54207D10C23594348
:10F240000818838A5380418A918003E0491CC9B21F
:10F250008B42EDD8002069460870936810469847A5
:10F2600038BD08B5002815D0002913D001236A46FF
:10F2700093703E4B13803B4A90600022D243028041
:10F28000002242808280096881603A496846FEF720
:10F2900034FF08BD0E2008BD08B5002816D000298F
:10F2A00014D00A88102A12D0352A13D0372A1ED03B
:10F2B000382A0BD18A8983889A4207D101236A466A
:10F2C0001370897C517082686946904708BD8988AF
:10F2D000018008BD8A8983880C319A4207D10223B4
:10F2E0006A46137089795170826869469047FFF7C2
:10F2F0006FFF08BD70B500281CD01A4B02884488E7
:10F30000186814214143401C4007174D400F1860F6
:10F3100049194C810220C881081D086100248C8194
:10F320000120087208714C710A808870FFF750FF45
:10F33000204670BD0E2070BD10B50A4B142219680E
:10F34000094C4A43491C4907490F19601219818821
:10F3500091800088108000209070FFF739FF002016
:10F3600010BD0000582800203C2E00200F1800007F
:10F37000192A00000BF2010010B5564C2168606894
:10F38000884210D01421544A484381188B78002BAE
:10F390000AD0105A083197DF002804D12079401C88
:10F3A0004007400F606010BD105A8988002295DF29
:10F3B000F2E738B50178002925D18188474A914282
:10F3C00021D1817901291ED1424943888A680021CF
:10F3D0001380434C037A0EE00C254D432D186D89A4
:10F3E000A54207D10C2359430818838A5380418AC8
:10F3F000918002E0491C8B42EED8012069460870DA
:10F4000093681046984738BD08B5002814D00029E5
:10F4100012D001236A469370304B13802D4A9060BE
:10F42000096881600021C9430180002141802D4984
:10F430006846FEF762FE08BD0E2008BD08B500282C
:10F440001DD000291BD00A88102A19D0372A1CD0B9
:10F45000382A14D18A8983889A4210D102226B46B5
:10F460001A708A7CD3074A1C002B0CD0D17C927C6A
:10F47000090211436A46518082686946904708BD77
:10F480008988018008BDC97CF4E7FFF775FF08BDD6
:10F4900070B500281CD00F4B0288448818681421CE
:10F4A0004143401C40070C4D400F186049194C81E6
:10F4B0000220C881081D086100248C810120087287
:10F4C00008714C710A808870FFF756FF204670BDA6
:10F4D0000E2070BD64280020DC2E00200D180000D6
:10F4E000372A0000B3F301008207D30EFF229A40AF
:10F4F0008907090E10B5994000280BDA03071B0F86
:10F50000083B9C080C4BA400E318DC6994430C43B3
:10F51000DC6107E08408094BA400E41823689343E6
:10F520000B432360C106C90E0120884004490860CE
:10F530000449086010BD000000ED00E000E400E0B8
:10F5400080E200E000E100E0F0B50025ED43002A94
:10F5500002D00023042601E004230A26FE4C05E025
:10F560009F003F197F687F1C04D05B1CB342F7D318
:10F570002846F0BD26185DB2203635739E00361938
:10F580007160002AF4D1E11840310872F0E770B5DB
:10F59000F14D2878002801D0082070BD0020411EC0
:10F5A0002A182032401CC0B211732028F8D300243E
:10F5B000204600F06EFA641CE4B20A2CF8D3012154
:10F5C0000620FFF791FF0120E449C00748600120B1
:10F5D0002870002070BDE0480078002800D001208D
:10F5E000704710B5044600F045FA002808D0DC4802
:10F5F000A1000A181068022188430843106010BD5A
:10F60000204600F02DFA0028F9D0204600F03CFA00
:10F61000D449820051180A69520852000A61012136
:10F620008140CE48816010BD10B50446FFF7D9FF78
:10F63000204600F015FA002807D0204600F024FAF2
:10F64000C84A0021800080180161C54A0220A1003B
:10F6500089180860204600F017FAC0B200F019FAC5
:10F66000BD480021C94300192030017310BD70B599
:10F67000044600F0F5F9B8490D192035002802D0EC
:10F68000287B00F006FA0020C0432873B44A022009
:10F69000A1008918086070BD70B50024AE4D2646E3
:10F6A00029192C200856811C0AD0C017401C02D0F2
:10F6B0002046FFF7B9FF641C202CF1D32E7070BDDB
:10F6C0002046FFF7D4FFF6E7F8B50446A2480D46FA
:10F6D000001920300C2141560026491C01D0082673
:10F6E0002FE0A97800291DD0012200212046FFF734
:10F6F0002BFF411C14D083009A482A781818697887
:10F700000369994F3B4003610369E706FF0C9207C9
:10F71000920BC907C90A3B430A431343036104E040
:10F7200004260EE00121C94301738D4A0320A10084
:10F73000891808606A780120A0408C49012A02D00B
:10F74000C8603046F8BD8860FBE7012181408748EA
:10F7500081607047012181408448C1607047834ABD
:10F76000012153688140C340D807C00F01D0D16048
:10F77000704791607047784909182C20085681001D
:10F78000784809180869032210431F221202024315
:10F790000A6100BF00BF00BF086170476E490918C9
:10F7A0002C20085681006F480818016989088900D3
:10F7B0000161704710B500F067F980066C49000ED2
:10F7C000401810BD002900D00121634A12182C20D6
:10F7D0001056820063481018026901231B059A43E2
:10F7E0000261026909050A430261704710B500F021
:10F7F0004BF980065E4A000E01218018016010BDA1
:10F80000F8B5554F0D46044638192C2141560026AF
:10F81000C8171346401C01D0082630E0EA78194684
:10F820002046FFF791FE411C28D04D4BAA78A1003D
:10F83000C918002A03D00A6802239A4301E06A78B3
:10F8400092000A60E978002910D0820045482978A2
:10F8500010180269474B1A400261E206D20C890770
:10F86000890B0A4301690A43026108E038184030F5
:10F870002A78017A92011143017200E00426304691
:10F88000F8BD70B50D46064600F0F4F801240028D6
:10F89000304618D000F0F8F82F49001F0818403003
:10F8A000007B8009032802D0012805D006E02F48FC
:10F8B0000069B440204201D1022100E0032130461A
:10F8C00000F0C1F870BD00F0CBF80028FAD0304647
:10F8D00000F0DAF88100CA1D224BF932C9180B6911
:10F8E00092B223430B612249511800220A60002D75
:10F8F000E8D084401948446070BD1C490969C14082
:10F90000C807C00F00D00120704710B500F0BCF848
:10F910008000FF300130164980B2401810BDFEB59E
:10F920000024FF250135012726460194284600F0D2
:10F9300083F800280AD0094901204968B0400142F3
:10F9400004D00B48002128183C4301602D1D7F0086
:10F95000761CADB2042E0FE07C2F00200063004027
:10F960000007005000650040FFE0ECFF000500507C
:10F9700000600040FFE0FCFFD8D3FF207D3000F0A6
:10F980005BF8002807D04948002101604007044384
:10F99000474800690190474F200713D001260025F2
:10F9A00026420BD04448AA00111808690969C0040E
:10F9B000C00E8903890FD2195268904776006D1CDA
:10F9C000042DEDD3002C34DA00243A4F01263819E7
:10F9D0004030007B8506AD0E80090090AE40284681
:10F9E00000F048F8002821D0284600F04DF88000AB
:10F9F000C0194768002F19D03049A8004018006886
:10FA000001998003800F0E4202D0022802D00DE03F
:10FA100003280BD10099032905D102280AD002211D
:10FA2000284600F010F828460099B847641C062CB8
:10FA3000CBD3FEBD0321F3E721494018006801281C
:10FA400000D00020704782001C4810180268032371
:10FA50001B049A430260026809040A43026070476B
:10FA6000144908182C214156042901D2012070475D
:10FA7000002070470F4908182C214156042901DB4A
:10FA800001207047002070470A4909182C200856A9
:10FA90007047084900228300D2435B185A6004284B
:10FAA00002D3081840300272704700007C610040A9
:10FAB000000500507C2F002000650040000700502A
:10FAC0000060004014225043FE4A0021801801715A
:10FAD000C18001220161C260416101817047FFB5AF
:10FAE00081B0F94C0E46039F049A054661780320C5
:10FAF0001743002903D1002F0DD001216170039A13
:10FB0000C9B2920000920B0001F042FB072C071BC8
:10FB10002E465D6C2C000221F0E700F08DFB87087B
:10FB200000F08AFB7043054600F08BFB461E00F098
:10FB300083FB70433A46294629DF002812D102216F
:10FB40000FE0304628DF00280CD10399002901D0AE
:10FB5000032106E00499002917D12978042950D0FF
:10FB600018E0617005B0F0BD00F06BFB471E00F0BF
:10FB700063FB474300F060FB70433946039A29DF7B
:10FB80000028EFD10499002901D00421E9E7297860
:10FB9000042925D00521E4E700F053FB471E00F0BF
:10FBA0004BFB47436888391800980F1800F044FB56
:10FBB0006988704341180098049A0818394629DF6B
:10FBC0000028E4D0CEE700F037FB009970434018DE
:10FBD00069888A08296929DF0028C3D1002F10D03D
:10FBE0000621BEE700F028FB064600F02AFB451E72
:10FBF00000F022FB6843314601F060FA28DF00285C
:10FC0000B0D10721ADE7F8B5AE4914230A780F202B
:10FC10005A43541821792569AB4E241D02291AD064
:10FC200004292ED0052964D100F006FB01462846A0
:10FC300001F044FA064600F0FFFA0146A08871433D
:10FC40004019401A870800F0F7FA711C4843A18850
:10FC50006288891836E0B0882269800261881318AA
:10FC6000091AA2882818101801229202914203D280
:10FC70008A08194629DF37E0FF220132194629DFB9
:10FC800032E0A2688F481101CC30091808894B89ED
:10FC90004968A94203D16188584388421BD0022A8F
:10FCA00019D000F0C9FA0146284601F007FA0646C5
:10FCB00000F0C2FA7043281A870800F0BDFA711CE0
:10FCC000484361883A464919401A8308314620461C
:10FCD000FFF705FF08E000F0AFFA0146284601F003
:10FCE000EDF9B188401828DF002802D175490122BA
:10FCF0008A70F8BDF8B5734C069E65780A2D1FD042
:10FD000027787D19EDB20A2D01D30A3DEDB21427F3
:10FD10007D432D192871002068716A6103C929612A
:10FD2000E860EB802E81A1780020002904D1FFF744
:10FD30006AFF112800D100206178491C6170F8BD6C
:10FD40000420F8BDF8B5074600205E4E8646B07820
:10FD500001281ED100205C4BB0705A78082A19D0B7
:10FD600034462578142169430C19022F20D0032F23
:10FD70000FD16079401CC0B26071241D03286AD085
:10FD8000FFF741FF002804D0112802D0214600F0DF
:10FD900080FAF8BD022F09D0187000F068FA002828
:10FDA000F7D0317814225143891959E05870F4E79B
:10FDB00045498B885B1C9EB28E802379241D022BC3
:10FDC00005D16788B102B94201D3012100E00021C9
:10FDD0008C46052B01D1072A03D00021042B02D029
:10FDE00003E00121FAE7072A03D00027042B02D001
:10FDF00007E00127FAE76488B302A34201D3002A8F
:10FE000027D00022394311436246114317D02E4AAE
:10FE10002C49507090804878401E4870681CC0B2D1
:10FE200008700A2801D30A38087014206843411862
:10FE30007046091D00F02DFA2846FFF743FE00F03A
:10FE400016FA0028A5D01F4914230A785A435118DE
:10FE500006E00122D6E730781421484381190D20AD
:10FE6000091D94E7F8B50024174D164EAC806C7050
:10FE700034707470B47027463846FFF723FE7F1C39
:10FE80000A2FF9D36C8000F0DCF9871E00F0D4F95A
:10FE900047430C48AF60AC80CC300460048184815F
:10FEA00044810820687000F0C7F9074600F0C9F9DE
:10FEB000441E00F0C1F96043394601F0FFF828DF25
:10FEC000002803E0D02F00207028002002D101215B
:10FED000B1702970F8BDF8B5F54D044628780E4686
:10FEE00000282ED0002C2ED0002E2CD020680028E8
:10FEF00029D000F0A1F90146A088814228D310281A
:10FF000026D3E088002823D000F09BF9471E00F09C
:10FF100093F94743E088A1884843A968401887427D
:10FF200016D300F089F90146E088A2885043814247
:10FF30000BDA00F081F9A18801F0C0F8002907D19F
:10FF400003E00820F8BD0E20F8BD2079800701D01D
:10FF50000720F8BD688801281BD03060D54FA968FC
:10FF60000201D019716041602168B950A1880181F6
:10FF7000E1884181A088E188002648430446761C38
:10FF8000B6B200F059F9A04205D200F055F9241A92
:10FF900002E00420F8BD002400F04EF9A9684018E2
:10FFA000A860002CEBD168880101C9198E81401C22
:10FFB00068800020F8BD30B5BD4B1B78002B07D002
:10FFC000002807D0002A05D00468002C12D103E0D5
:10FFD000082030BD0E2030BDB64B1D68002D09D065
:10FFE00045681889414369185D8945435868281850
:10FFF000884201D8072030BD14600020516030BD18
:020000040002F8
:10000000F8B50446AA481E46007815460F46002853
:1000100007D0002F07D0002C05D02068002817D16A
:1000200003E00820F8BD0E20F8BDA24801680029B1
:100030000ED04289018940684A4310186268904294
:1000400006D9002D04D0A94202D3A819884201D9AB
:100050000720F8BD384600F004F9002811D03046DA
:1000600000F0FFF800280CD0606800F0FAF80028D3
:1000700007D02B463A46214602200096FFF73AFE6B
:10008000F8BD1020F8BDF8B5044689481E46007832
:1000900015460F46002807D0002F07D0002C05D0AA
:1000A0002068002817D103E00820F8BD0E20F8BD15
:1000B0008048016800290ED04289018940684A437E
:1000C00010186268904206D9002D04D0A94202D3CC
:1000D000A819884201D90720F8BD384600F0C1F8B8
:1000E000002811D0304600F0BCF800280CD0606821
:1000F00000F0B7F8002807D02B463A4621460520E5
:100100000096FFF7F7FDF8BD1020F8BDFFB5684871
:1001100081B000781F4616460D46002808D0002DF5
:1001200008D00198002805D02868002817D103E0DE
:10013000082017E50E2015E55E4C206800280ED03B
:10014000618920896268414389186A68914206D9A9
:10015000002E04D0B04202D3F119814201D9072008
:1001600000E5019800F07DF800281AD0384600F02C
:1001700078F8002815D0686800F073F8002810D0CF
:1001800068683246C119019800F0AEFF00962868F1
:1001900000220001245803212846019BA04700208B
:1001A000E0E41020DEE4F8B5054641480F4600784B
:1001B000002805D0002D05D02868002820D103E0B4
:1001C0000820F8BD0E20F8BD3A4C00262068002813
:1001D00016D0608921894843616841186868814266
:1001E0000ED900F03EF800280CD029686868090193
:1001F00009194A680989801A00F060FF002903D0B4
:100200000720F8BD1020F8BD3B46002229460420F7
:100210000096FFF76FFDF8BD25490978002907D042
:10022000002807D02349CC39497801600020704765
:10023000082070470E20704701200007006980B237
:10024000704710B51C484469601C06D0FFF7F4FFE6
:100250000146204600F032FF10BD01200007406932
:1002600010BD800701D00020704701207047114960
:1002700010B5CC394A780020002A09D089780029A5
:1002800006D1FFF7C0FC002802D0112800D10020C1
:1002900010BD38B50C46A268064B12019D5809786E
:1002A000628800920246204608302369A84738BD7C
:1002B000702800209C300020001000101CB5CB4995
:1002C0000120C860CA49487003206A461070496816
:1002D000684688471CBD38B5C54C6078022802D0F6
:1002E000C249012088606946C24800F04CFE0028DF
:1002F00002D0FFF7E3FF38BDBF48802181606A4626
:10030000BE4B1278DA6102226270416038BD10B5CE
:10031000B84AB749030000F03BFF05040B31202722
:100320001200487801281FD0022808D1032005E0D8
:100330004878002804D0032801D10220487010BD5D
:10034000AE4B04201860A94B012018609368D26856
:100350009A42F3D0FFF7BFFF10BD4878012806D0BE
:10036000022804D00328F7D100F036F910BD9068B8
:10037000D1688142EED1FFF7A1FF10BD4878012876
:10038000E8D010BD10B5FFF7B8FA002801D0002062
:1003900000E00120FFF7BBFF10BD7CB5984CA068C2
:1003A000934E002500281AD0A56094488069C1B2F8
:1003B0009048103800F0D6FD002805D001216A468B
:1003C00011700190684608E08A4810388168C0685A
:1003D000401A012803D16846057071688847E069B2
:1003E000002803D0E5610320FFF791FF606A002831
:1003F0000BD06562814980390868086002216A462D
:10040000117001907168684688477CBDFFB5784FD0
:1004100083B000260D4604467E707A6000292AD0FB
:10042000A888296882B27348103800F089FD002836
:1004300022D1A889A96882B26E4800F081FD002807
:100440001AD160786F490322800040180260227838
:100450003046920051180E60684D6178E96021784D
:100460006961A1686962654E61794036002905D0ED
:100470000E21F16203E0072007B0F0BDF06223799E
:10048000022B17D05E49594A012B45D004232B601B
:100490008860C861F06A40084000F062581FA86098
:1004A000286101209060106078700C980088002806
:1004B0003FD043E0FFF78FF8002803D1FFF767F83C
:1004C0000028D9D15048694600680090A078FFF70D
:1004D000FBF80028D0D1401E2861A078A860F06AFF
:1004E00001210843F0624848484A40680190E0789A
:1004F00001A9FFF785F90028BED1E0780121FFF7B7
:10050000C0F9E078FFF7F9F9002801D0002000E0F9
:100510000120FFF7FCFEC8E704232B608860C86158
:10052000F16A01200143F162E1782961A178A960B3
:10053000B8E70C9938780880401C387000212E48A4
:10054000C9438160A12189004160314904200860CC
:10055000304B06991A68FF2424048907090EA24328
:1005600009040A431A602C490860002084E7014608
:10057000204810B5103800F006FD10BD10B501463A
:100580001C4800F0EFFC04460220FFF7C0FE2046A6
:1005900010BD184810B5103800F006FD002802D133
:1005A000144800F001FD10BD11494978002900D020
:1005B000012101700020704710B5FF2803D20420EC
:1005C000FFF7A5FE06E00420FFF7A1FE0B48006937
:1005D000FFF72AF8002010BD0549002048700349A4
:1005E0000122CA604A600549086070470020004047
:1005F0007C280020BC300020002300400025004063
:10060000002100400007005008140200850302008A
:1006100080E200E000E400E000E100E0BFF34F8F83
:1006200003490248C860BFF34F8FFEE70400FA0594
:1006300000ED00E008B56846FFF799FF0528FAD0FD
:100640006846007808BD10B50446C0B2FFF796FFB3
:10065000204610BDF8B5002601245A4D23E06968F4
:10066000F0004718387821466A698140114218D055
:100670008A436A61FFF741F93A7821462B69914034
:1006800019400346934099420BD17978012901D052
:10069000012100E000217B684140002B01D0104681
:1006A0009847761CF6B228788642D8D3F8BD70B544
:1006B0000646444C0125B540E06800F0F4FA0028F5
:1006C0000CD16169294207D13046FFF716F900289D
:1006D000206904D0284303E0A943616170BDA843A9
:1006E00020616069002228436061A168E06800F031
:1006F0009DFA70BDF8B515460C460646052A01D28E
:100700000720F8BDFEF767FF002803D1FEF73FFF83
:100710000028F6D12B4900204E600C7008618D60D6
:100720004861294D0DE0E000296880190091817829
:100730006A4651700078254A6946FFF761F800283B
:10074000DFD12046641EE4B20028ECD11D48204AC7
:1007500000210C3000F00CFAF8BD70B50024194DE2
:1007600006E06968E000085C0121FFF78AF8641C74
:1007700028788442F5D3002070BD70B50024114D57
:1007800005E06968E000085CFEF72BFF641C287830
:100790008442F6D3E86800F086FA70BD70B50D4665
:1007A0000849C000496844182078FFF7A6F8617826
:1007B000012901D0012100E00021414029700020E1
:1007C00070BD00008828002010140200AF0602004F
:1007D000550602008307FF22DB0E9A408907090EA7
:1007E000994000280BDA0007000F08388308FB48FF
:1007F0009B001818C36993430B43C3617047830878
:10080000F7489B001B18186890430843186070470E
:1008100070B50124F34960040860F3494010886012
:10082000F14940398860F14D6C602F20FCF752FC93
:10083000AC60EF4D00242F206C61FCF74BFC2C7159
:1008400070BDF0B5EA4F2421BC6841430D193969E8
:100850004A1C09D024224A4316196B6872689342D5
:1008600004D8D21A726029623861F0BD0A4602E0EB
:100870000A46396A9B1B4E1C0BD024264E4337195F
:100880007E689E42F4D324264E4336197768FF1AB9
:1008900077606B60296224214A4311190862F0BD18
:1008A00070B5D34C2269A5681346114606E0814213
:1008B00007D00A46242671434919096A4E1CF6D10D
:1008C00070BD002EFCD08A420CD12420434358191D
:1008D000006A2061401C05D1C44B012098600023B0
:1008E00063616071242041434819242341685A43BD
:1008F000006A52191062421CE2D02422504340196F
:1009000042685118416070BDF8B5B94C2569681C42
:1009100035D0B848002640686169401A07023F0A8E
:1009200019E024204543A0682A185068B84214D81A
:10093000A3693F1A8619156A002B09D0D1699069FD
:100940009847002807D000221146FFF767FE02E013
:100950009169D0698847681CE3D1A178E078814229
:1009600006D1401CC0B2E070022801D10020E07026
:100970009F490006800D1C310E5000F0E7F9F8BDCC
:10098000F8B504469A4800270169009146785CE072
:100990009748F100C2688D1851E0601C07D0944A56
:1009A00024209268604321468018046A24E0287855
:1009B000182141436A68401CC0B252182870A978B7
:1009C000884200D12F708A4B516824209B6848438D
:1009D000C0181378012B34D1037D002B31D19368DB
:1009E0008360D368C360136903615269C261804A3E
:1009F0005279002A00D087607D4B82685B699646F9
:100A00009C46D31A1A027C4B120A9A4202D2C3683D
:100A1000D21808E0724663469A1A1202C368120A94
:100A2000934202D99A1A426000E04760876001222F
:100A3000C7600275921E02620846FFF702FF601C43
:100A4000ABD1287869788842A7D13046761EF6B2B5
:100A500000289DD1664801690098814201D001209B
:100A6000F8BD0020F8BD6549002008604860886036
:100A7000C860624940390860486045E7FEB500201B
:100A8000C0435B4D02906869019068462E6900F092
:100A900062F9074600F07CF90446002F08D002AA4C
:100AA0000199009800F0BCF90298FFF769FF06E091
:100AB0000298FFF765FF002801D1002C02D03046D4
:100AC00000F0D7F900206871FEBDFFB5980700243B
:100AD00081B01E4615460F4600280BD1002E09D0C6
:100AE000FFF796FE42490A9888610F70324600204F
:100AF0008E6008E0072005B0F0BD24234343D454A2
:100B00009B181C75401CB842F7DB24204743BB19D7
:100B1000032048700F461846CB6019461830002253
:100B200018232E465E43D3005B181C705C709D70CA
:100B300058603018521C032AF5DB0020C04338618E
:100B4000BC70FC7001242E4824050460032114208D
:100B5000FFF740FE234880380460264C0198A060CF
:100B600003211120FFF736FE606878610020C2E79C
:100B700070B51F4CA568002D06D0002A06D00028AD
:100B800004D00023247809E0082070BD072070BD40
:100B900024265E43AE5D002E04D05B1CA342F7DB2F
:100BA000042070BD242401265C432E556419617015
:100BB000A2610360002070BD08494868C005C00DEF
:100BC0002ED0103840B200281CDA0207120F083A63
:100BD000920892005118C96919E0000000ED00E088
:100BE00000E400E080E100E040130140001001401B
:100BF000A028002000150140FFFF7F0040110140A8
:100C000080E200E08108C74A8900891809688007E6
:100C1000C00EC1400806800F012803D0032803D06E
:100C2000022070470020704701207047FEB504463F
:100C3000BD48174682680D46002A0CD001788C42C8
:100C400001D2052D01D20720FEBD214624235943A0
:100C5000535C012B01D00820FEBD88184078012884
:100C60001DD00026FFF7A8FFC000AF490190C9685A
:100C70004018694600F043F9002812D001210170A4
:100C8000AA49446049680830E2C0A7490198C96888
:100C900041180098487000F059F80020FEBD2E461B
:100CA000E0E70420FEBDF8B59F4D0446A868002883
:100CB00009D029788C4201D30720F8BD2421614353
:100CC000405C012801D00820F8BDFFF775FFC60081
:100CD000E8686946301800F012F900280AD00221AD
:100CE00001704460E86831180098487000F02EF8F0
:100CF0000020F8BD0420F8BD38B58B4CA068002852
:100D000015D0FFF759FFC500E0686946281800F0C4
:100D1000F6F800280DD003210170091F4160E0683A
:100D200029180098487000F011F8002038BD0820FC
:100D300038BD042038BD7D494968016000207047F6
:100D4000401A0002000A1060002070470120784914
:100D500000050860704710B5734900238A78CC7885
:100D6000A24212D0521CD2B28A70022A00D18B70D9
:100D70008A786D4B92001C339A58026048691018AB
:100D80000002000A4861012010BD0360002010BD70
:100D9000F8B5654801690091457833E06248E9009B
:100DA000C0680E1834782AE0182060437168641C0B
:100DB0000818B178E4B2A14200D1002401780229D8
:100DC00002D003291BD113E0574A406824219268BE
:100DD00041438F18397D002911D0FFF761FD0020B4
:100DE00038750CE024277843C0180275006A03E0C8
:100DF0004D4900228B680869471CF3D1086170785F
:100E0000A042D1D128466D1EEDB20028C6D1464879
:100E100001690098814201D00120F8BD0020F8BD91
:100E2000F7B5414C0025A76823691EE024215943EA
:100E3000C9194E68864202D9301A486017E0801BF3
:100E4000751900264E600E750E699C460B6AB646F3
:100E5000002E0AD0019E76193602360A8E6076463A
:100E6000CE6016680E6261461160591CDED12361A6
:100E7000FEBDF8B52C4801694A1C3DD024225143DF
:100E8000826889184E6829494C6847690079E11BD6
:100E90000D022D0AED1C002815D10120254A000461
:100EA0005060244A403A5060214940008031086037
:100EB000214908602149012008602F20FCF70AF928
:100EC000194901200871B54200D23546E8190002DF
:100ED0001649000A4031086014494968001B091B83
:100EE0000902090A0002000AC91C814203D9012033
:100EF0000F4940040860F8BDFFF78AFCF8BD42784E
:100F00008378521C934200D100220378934201D18E
:100F1000002070470A604168407818225043081842
:100F20007047000000E400E0A02800200015014008
:100F300000E200E04013014000E100E00010014049
:100F4000002906D0002A02D0531E134203D00920E4
:100F500070470E2070470160838000218160C1606E
:100F6000084670478268C3689B1A8288934208D8F3
:100F7000C36813400268D154C168491CC160002095
:100F80007047042070478268C36893420AD0826821
:100F900083881A4003689A5C0A708168491C8160E2
:100FA0000020704705207047C168816000207047AD
:100FB00010B508461146FCF79DF810BDF8B53D4C3C
:100FC0002078002837D02069002807D00026E06864
:100FD000002805D00025002E04D013E00126F6E7F6
:100FE0000125F8E7684651DF052806D0002806D01D
:100FF00000221146FFF712FB04E0012602E02169FE
:1010000000988847002D12D1608869460880A06842
:1010100061DF052806D0002806D000221146FFF720
:10102000FDFA04E0012502E0E168A0688847002E8F
:10103000D8D0002DCFD0F8BD70B5002901D08C07D5
:1010400001D0072070BD1B4C0125A16062801A49A8
:10105000636010DF0028F5D1257016202EDF70BDEB
:1010600011DF002801D0012100E00021114A117098
:101070007047002803D00F49C860002070470E2039
:101080007047002803D00B490861002070470E20EC
:10109000704710B507484068002807D080470028EF
:1010A00003D000221146FFF7B9FA10BDFFF786FF03
:1010B00010BD0000C4280020B10F020030B50B465F
:1010C000014600202022012409E00D46D5409D4222
:1010D00005D31D469540491B2546954040191546A8
:1010E000521E002DF1DC30BD03460B439B0703D09D
:1010F00009E008C9121F08C0042AFAD203E00B78DD
:101100000370401C491C521EF9D27047D2B201E054
:101110000270401C491EFBD270470022F6E710B552
:1011200013460A4604461946FFF7F0FF204610BD55
:1011300030B504460020034600E05B1C934203D216
:10114000E05CCD5C401BF8D030BD0000064C0125B2
:10115000064E05E0E36807CC2B430C3C984710345F
:10116000B442F7D3FBF7B0FF1414020034140200AA
:101170000FB410B503A9044B044A029800F024F8F8
:1011800010BC08BC04B018474706020084280020A1
:1011900030B47446641E2578641CAB4200D21D46F0
:1011A000635D5B00E31830BC184702E008C8121FFB
:1011B00008C1002AFAD170477047002001E001C140
:1011C000121F002AFBD17047FFB58DB00F460546B0
:1011D000002606E025280AD0109A0F9990476D1C2A
:1011E000761C28780028F5D1304611B0F0BD0024D7
:1011F0000121674A009400E004436D1C2B780846E7
:10120000203B98401042F7D128782E2815D1042091
:10121000044368786D1C2A280AD101CF6D1C009008
:101220000BE000990A225143303940186D1C0090A0
:101230002878014630390929F3D92878692843D01C
:1012400006DC0028D0D063280BD0642804D13BE012
:1012500073280FD075284CD0109A0F999047761CA0
:1012600094E03878694608720020487202A801901C
:10127000012003E0386801900020C0433F1D610752
:101280000CD5002400E0641C00998C420FDA8442E3
:10129000F9DB0199095D0029F5D108E0002400E09F
:1012A000641C8442FCDB0199095D0029F8D13619E0
:1012B00007E0019801990078491C0191109A0F9953
:1012C0009047641EF5D261E00A20019001CF00280A
:1012D00002DA40422D2102E0210504D52B216A4685
:1012E0001172012103E0E10701D02021F7E70C9101
:1012F00004E00A20019001CF00210C910BA90B9171
:1013000008E00199FFF7DAFE0A460B993032491ED0
:101310000B910A700028F4D10B9803A9081A203009
:101320000190600701D5009801E00120009001992B
:10133000884203DD01460198081A00E000200024DD
:10134000009006E002A8109A005D0F999047641C77
:10135000761C0C988442F5DB04E0109A30200F993B
:101360009047761C0099481E00900029F5DC08E0A3
:101370000B980B990078491C0B91109A0F99904784
:10138000761C0199481E01900029F1DC6D1C28E7AC
:101390000928010006001800000090010B09080A46
:1013A0000100000000509D0011000000120000002C
:1013B000130000001400000011000300C1D7010059
:1013C00012000300C1D7010013000300C1D70100C0
:1013D00014000300C1D701008BF10100EDE301000F
:1013E0008FF1010093F101009BF101007DE4010008
:1013F0009FF10100A3F10100ABF10100A7E401009E
:10140000AFF10100B3F10100000100000300000092
:10141000030000003414020000280020D80000005F
:10142000AA1102000C150200D8280020F80F0000B5
:10143000BA110200000200000000000000000000DD
:10144000000000000000000000000000000000009C
:10145000000000000000000000000000000000008C
:1014600000000000000000000024F4000000000064
:10147000000000000000000000000000000000006C
:10148000000000000000000000000000000000005C
:10149000000000000000000000000000000000004C
:1014A000000000000000000000000000000000003C
:1014B000010000000000000000000000000000002B
:1014C000000000000000000000000000000000001C
:1014D000000000000000000000000000000000000C
:1014E00000000000000000000000000000000000FC
:1014F00000000000000000000000000000000000EC
:0C150000000000000000000000000000DF
:040000050001D0C165
:00000001FF
